:020000040800F2
:100000000066002005030008E51C00088D1B0008A1
:10001000E11C0008C51900083B230008000000008F
:100020000000000000000000000000004D02000879
:10003000391A000800000000A1020008252000086D
:100040001F0300081F0300081F0300081F03000808
:100050001F0300081F0300081F0300081F030008F8
:100060001F0300081F0300081F0300081F030008E8
:100070001F0300081F0300081F0300081F030008D8
:100080001F0300081F0300081F0300081F030008C8
:100090001F0300081F0300081F0300081F030008B8
:1000A0001F0300081F0300081F0300081F030008A8
:1000B0001F0300081F0300081F0300081F03000898
:1000C0001F0300081F0300081F0300081F03000888
:1000D0001F0300089D200008252100085521000865
:1000E0001F0300081F0300081F0300081F03000868
:1000F0001F0300081F0300081F0300081F03000858
:100100001F0300081F0300081F0300081F03000847
:100110001F0300081F0300081F0300081F03000837
:100120001F0300081F0300081F0300081F03000827
:100130001F0300081F0300081F0300081F03000817
:100140001F0300081F0300081F0300081F03000807
:100150001F0300081F0300081F0300081F030008F7
:100160001F0300081F0300081F0300081F030008E7
:100170001F0300081F0300081F0300081F030008D7
:100180001F0300081F03000800F002F800F04FF8FA
:100190000AA090E8000C82448344AAF10107DA45E2
:1001A00001D100F044F8AFF2090EBAE80F0013F0E5
:1001B000010F18BFFB1A43F001031847BC68000089
:1001C000DC680000103A24BF78C878C1FAD852071A
:1001D00024BF30C830C144BF04680C6070470000C1
:1001E0000023002400250026103A28BF78C1FBD840
:1001F000520728BF30C148BF0B607047662906F020
:10020000E283642900F0D680732900F0A3840020E3
:1002100070471FB506F0CDFB00F006FD040000207E
:10022000002105F00DFFE0601FBD10B510BD00F00E
:1002300027FE1146FFF7EDFF03F094F900F045FEAD
:1002400003B4FFF7F2FF03BC02F098F82A4B1968D9
:100250000868B0E8F04F80F30988BFF36F8F4FF064
:10026000000080F311887047000000000648006815
:10027000006880F3088862B661B6BFF34F8FBFF3A2
:100280006F8F00DF00BF00BF08ED00E0DFF80C005B
:10029000016841F470010160704700BF88ED00E023
:1002A000EFF30980BFF36F8F134B1A681EF0100F26
:1002B00008BF20ED108A20E9F04F106008B44FF01D
:1002C000500080F31188BFF34F8FBFF36F8F04F09E
:1002D000C5FE4FF0000080F3118808BC196808685B
:1002E000B0E8F04F1EF0100F08BFB0EC108A80F39A
:1002F0000988BFF36F8F704784000020EFF30580FB
:10030000704700000948804709480047FEE7FEE7BC
:10031000FEE7FEE7FEE7FEE7FEE7FEE7FEE7FEE7B5
:1003200004480549054A064B70470000352000087F
:1003300089010008006000200066002000620020A3
:1003400000620020704700000FB4044910B503AAF2
:10035000029800F003FC10BC5DF814FB6C00002058
:1003600070B50C460546012A05D02878800600D5D0
:10037000EA69002302E0012305E05B1C934202D2FC
:10038000E05C0028F9D1A869E618C01AA861286ABB
:10039000184428622846AFF3008004E0D5E9012123
:1003A00014F8010B9047B442F8D32846AFF300800D
:1003B00070BD00002DE9F041064600241068752943
:1003C000314616A510D0AFF30080002802DA404273
:1003D00013A507E031688A0701D512A502E0490795
:1003E00004D511A5012401E0AFF3008000210A2209
:1003F00006F1240709E0B0FBF2FCB0FBF2F302FBCC
:100400001C00303078541846491C0028F3D123468C
:100410002A463046BDE8F04100F009B9000000006E
:100420002D0000002B000000200000002DE9F04707
:100430004FF0000A89460446C0F820A02046E16833
:100440008847002876D0252806D0D4E90121904796
:10045000206A401C2062F1E7E168204600268847B8
:10046000C4F81CA005460027C4F818A02A2D09D0FE
:10047000284601F07CFF38B304EB8708303DC8F80C
:10048000185019E059F8041B204604EB87029161CB
:10049000E1688847012F054618D1E069002820DA75
:1004A00026F020061DE0D8F8180000EB800005EBD0
:1004B00040003038C8F818002046E16888470546F3
:1004C00001F055FF0028EED1012F0AD02E2D08D1C2
:1004D0002046E16888477F1C0546022F46F020062B
:1004E000C4DBA069002803DA404246F00106A0619F
:1004F000F00701D026F010066C2D0AD0682D08D028
:100500004C2D39D06A2D35D0742D35D07A2D33D07D
:1005100016E0E1682F4620468847B84205460AD1D2
:100520006C2F27D04FF48060E1680643204688474F
:10053000054605E027E06C2F1AD04FF48070064383
:100540000DB3A5F14100192802D8203546F4006604
:100550004A462946204626604E46FFF74FFE80B1A8
:1005600001280BD0F61D26F0070000F1080965E709
:100570004020E4E78020D7E70020D5E706F1040912
:100580005CE7284661E7206ABDE8F087032A40F26D
:10059000308010F0030C00F0158011F8013BBCF125
:1005A000020F624498BF11F801CB00F8013B38BF3D
:1005B00011F8013BA2F1040298BF00F801CB38BF4B
:1005C00000F8013B11F0030300F0DA82083AC0F0B2
:1005D000088051F8043B083A51F804CBA0E8081011
:1005E000F5E7121D5CBF51F8043B40F8043BAFF344
:1005F0000080D20724BF11F8013B11F801CB48BF9E
:1006000011F8012B24BF00F8013B00F801CB48BFD3
:1006100000F8012B704702F0FF0343EA032242EA8D
:10062000024200F0E1BA70477047704770472DE909
:10063000F0470D4699469246044600F124080168A9
:10064000880604D5E06921F01001216000E0012056
:10065000A84201DD471B00E00027A1697A1902EBDF
:100660000900081AA0612078C00602D42046AFF322
:100670000080002608E0D4E901211AF8060090471E
:10068000206A401C761C20624E45F4DB2078C006B0
:100690000AD52046AFF3008006E0D4E901213020DE
:1006A0009047206A401C2062381EA7F10107F4DC45
:1006B00007E0D4E9012118F805009047206A401CA2
:1006C0002062281EA5F10105F3DC2046AFF300806F
:1006D0002078000602D50220BDE8F0870120FBE764
:1006E00070472DE9FF4F0C461E464FF0FF378BB089
:1006F000D2E90001DDF860800A908A46C1F30A550C
:1007000005B93D46002108464FF00000BAF1000F40
:1007100000F4400005DA00EB80004FF4400101EAEC
:1007200050004FEA9059B9F1010F00DDB9460A981F
:1007300050EA4A000ED044F61050A5F2FF3545436A
:100740002F14B8F1000F1ED07542291E1EDDC9F10D
:1007500000021CE0B8F1010F4FF0000001D0302181
:1007600003E0F24305E02154401CB042FBDB30467D
:100770000022002121540B99C1F80880C1E9002012
:100780000FB0BDE8F08FBD1B6D1CDEE74A4600DAF6
:10079000694206A800F0D2FA06AB93E8070003AB63
:1007A00083E8070050460A9900F0D8FB8DE807005F
:1007B000A0F500501F3800900398002D0ADD42F28A
:1007C0001F014A460844002303A90390684600F02D
:1007D00041FE09E0A0F500504A461F38002303A956
:1007E0000390684600F04BFE8DE807000004000C03
:1007F00003D04FF0FF30410800E01046B8F1000F81
:1008000003D00022009215461EE0751E05D400F0AC
:100810000FFA303262556D1EF9D5B34601220843F6
:1008200002D000227F1C04E02078302801D1002271
:100830007F1E002A099784D01DE0112D07DA00F0F1
:10084000F7F9303262556D1C50EA0102F5D10843C8
:1008500002D00098C8B10EE00021681E05E0235CBC
:10086000625C63542254401E491C8142F7DBAB4654
:10087000A81B401E0990002004F80B000B98099A51
:10088000C0F80880C0E9002B7AE711264FF0000875
:1008900057E72DE9F04F88460446D21D22F00701A4
:1008A00091B0D1E90001CDE90A0101F048FD02460D
:1008B0000B98C00F01D02D2007E02068810701D5DB
:1008C0002B2002E0202101EAC000032A099001D078
:1008D000072A05DB03464146204600F0EFF90BE10D
:1008E0002078800601D5E06900E00620B8F1650FA8
:1008F000814606D0B8F1660F18D0B8F1670F70D1F5
:1009000031E00020B9F1110F009001DB112301E06B
:1009100009F101030AAA01A90CA8FFF7E2FEDDE92B
:100920000C70002609F10105834647E001204B4683
:1009300000904FF000470AAA01A90CA8FFF7D1FECA
:10094000DDE90DB00C995D46002610B909F10100F2
:100950000D18B9EB050003D4C0F1FF3609F101050C
:10096000A5EB09002BE0B9F1010F01DA4FF0010905
:100970000020B9F1110F0090484601DD112300E07D
:1009800003460AAA01A90CA8FFF7ABFEDDE90C702B
:100990004D4600268346207800070AD4AB4500DA8E
:1009A0005D4601A8012D04DD411911F8011C302913
:1009B00007D04F4502DA17F1040F04DA012082460E
:1009C0000FE06D1EEEE7002F02DCED1B3E4403E05E
:1009D000781CA84200DD7D1CB81B00F1010A4FF015
:1009E00000472078000703D4AA4501DB4FF0FF3A07
:1009F0000021B7F1004F0DF143088DF8431024D0CA
:100A000002202B23002F01DA7F422D230A21021E10
:100A1000A0F1010000DC5FB197FBF1FC97FBF1F264
:100A200001FB1C7C17460CF1300C08F801CDEEE7F9
:100A3000A8F1010003702188090501D5452100E0D6
:100A40006521A0F1010800F8011C09980FA9A1EB8C
:100A50000807FF1D00B10120411901EBEA70A169EF
:100A60003844081A401EA0612078C00602D42046EF
:100A7000AFF30080099828B1D4E901219047206A9A
:100A8000401C20622078C00622D52046AFF30080AB
:100A90001EE0002E04DBB34502DD01A8805D00E00E
:100AA0003020D4E901219047206A401C2062761C46
:100AB000AAF101005FEA000A0AD100F0B5F8C068A7
:100AC0000168405CD4E901219047206A401C206203
:100AD000281EA5F10105DCDC07E0D4E9012118F8A6
:100AE000010B9047206A401C2062381EA7F10107C5
:100AF000F3DC2046AFF30080032011B041E6000094
:100B000001694A1C02610878704700B58FB0CDE9D1
:100B100001310021059105497944CDE903101146C1
:100B20006846FFF783FC0FB000BD0000E5FFFFFF44
:100B300010B5436913B1AFF3008001E0FFF710FC7B
:100B4000012010BD127800F124010A7000224A70C1
:100B50000122EDE711684FF0FF32E9E7074B70B56E
:100B60000D467B44FFF7D1FF0446284600F058F9B4
:100B700010B14FF0FF3070BD204670BD4719000026
:100B800010B5203AC0F00B80B1E81850203AA0E828
:100B90001850B1E81850A0E81850BFF4F5AF5FEA5C
:100BA000027C24BFB1E81850A0E8185044BF18C90F
:100BB00018C0BDE810405FEA827C24BF51F8043BB6
:100BC00040F8043B08BF7047D20728BF31F8023B0A
:100BD00048BF11F8012B28BF20F8023B48BF00F89E
:100BE000012B70474FF000020429C0F0128010F072
:100BF000030C00F01B81CCF1040CBCF1020F18BFF8
:100C000000F8012BA8BF20F8022BA1EB0C0100F08B
:100C10000DB95FEAC17C24BF00F8012B00F8012B5D
:100C200048BF00F8012B704700487047C05F0020A4
:100C300030B5B0F10A024FEA900E71F100034EEAAE
:100C4000817EB0EB0E0061EB91014FEA101E4EEA7F
:100C5000017E10EB0E0041EB11114FEA102E4EEA0F
:100C6000016E10EB0E0041EB11214FEA104E4EEADF
:100C7000014E10EB0E0041EB1141401841F1000113
:100C80004FEAD00040EA41704FEAD10110EB8005F5
:100C90004FEA810444EA907444EB01046D1944EB7B
:100CA0000404521BA3414FF0000348BF0A3200D591
:100CB00030BD401C41F1000130BD00002DE9F04184
:100CC0001F46044603260168072A01F4006004DB7E
:100CD00008B116A505E016A503E008B115A500E0CA
:100CE00015A521F010002060A069C01EA0610FB101
:100CF000401EA0612046AFF300804FB1D4E901212E
:100D000038469047206A401C2062C01C206206E0E2
:100D1000206AFAE7D4E9012115F8010B9047761E05
:100D2000F8D22046AFF30080BDE8F0814E414E007E
:100D30006E616E00494E4600696E66002DE9F0470F
:100D4000814616468AB0354878440DC88DE80D00B6
:100D500032487844801C03AC0DC884E80D0041F68D
:100D60009B300844372190FBF1F290FBF1F5A5F19F
:100D7000800501FB12041B3C02D56442012000E007
:100D80000020DFF898A080460027FA44AAF1BE0AA6
:100D90000EE0E0070AD03246684607EB4701012320
:100DA0000AEB810100F06BFB8DE8070064107F1CEB
:100DB000002CEED1194F7F44AE3F19E0E80715D063
:100DC00007EB04100DF1180A90E80E008AE80E00F7
:100DD000C068F04201D1981908903246012306A953
:100DE00003A800F04CFB03AB83E807006D10641C04
:100DF000002DE3D14FF0010332466946B8F1000FF0
:100E000003A802D000F026FB01E000F038FBC9E99E
:100E10000001C9F808200AB0BDE8F087145D0000A1
:100E2000007B00F0800070474FF0000200B51346D1
:100E300094469646203922BFA0E80C50A0E80C50FA
:100E4000B1F12001BFF4F7AF090728BFA0E80C50AB
:100E500048BF0CC05DF804EB890028BF40F8042BA4
:100E600008BF704748BF20F8022B11F0804F18BF11
:100E700000F8012B7047000000487047A05F002079
:100E80007546FFF7F9FFAE4605006946534620F068
:100E90000700854618B020B5FFF742FABDE82040AC
:100EA0004FF000064FF000074FF000084FF0000B26
:100EB00021F00701AC46ACE8C009ACE8C009ACE8D9
:100EC000C009ACE8C0098D46704710B50446AFF3C1
:100ED00000802046BDE81040FFF7B2B94FF0013C5A
:100EE00050F8042B51F8043B9A4221D1A2EB0C0399
:100EF000934313EACC1317D150F8042B51F8043B59
:100F00009A4215D1A2EB0C03934313EACC130BD1F5
:100F100050F8042B51F8043B9A4209D1A2EB0C0380
:100F2000934313EACC13DBD04FF00000704700BFAF
:100F3000D01A01BAB1FA81F101F0180122FA01F0D8
:100F4000CB40C1F12001DBB2C0B2C01A2CFA01F3D0
:100F5000D11A914311EAC311E6D170475FEA400C00
:100F600008BF91F0000F4FEA8C234FEAC12243EAF9
:100F700051514FEA1C5018BF00F5F0404FEA3000C5
:100F800018BF41F000415FEA6C5C00F02980BCF1C1
:100F9000FF3F08BF40F080407047130C06BF1204AB
:100FA0004FF0100C4FF0000C130E04BF12020CF1A6
:100FB000080C130F04BF12010CF1040C930F04BFB3
:100FC00092000CF1020CD30F04BF52000CF1010C83
:100FD00011464FF00002A0F11F00A0EB0C0070477B
:100FE00011F0004F08BF704731F000413FF4D5AF1A
:100FF0000B0C06BF09044FF0100C4FF0000C0B0E49
:1010000004BF09020CF1080C0B0F04BF09010CF11D
:10101000040C8B0F04BF89000CF1020CCB0F04BF32
:1010200049000CF1010CCCF12003A0EB0C0022FADA
:1010300003F302FA0CF241EA030100F101007047E8
:1010400020F07F4C80EA030023F07F47ACEB0703DE
:1010500003F57C5300F0004003F1FF032DE98049C4
:101060004FEA154B09B44FEA144325EA0B4E24EA24
:1010700003480FF2042606EB132749083E785FEA7F
:10108000320203FB0667C7F5000707FB06F64FEAC7
:1010900054374FEAD64606F1020607FB066CCCF140
:1010A000005C4FEA1C472CEA074C07FB06F40CFBDC
:1010B00006F504EB15464FEA961634BF00204FF0B4
:1010C00000404FEAD13706FB07FC4FEA1C4C0CFBF3
:1010D0000BF7D21B03FB0CF761EB07010CFB0EF7C0
:1010E000B0EB074072EB17420CFB08F734BFA2EBE2
:1010F0000742B2EB074261EB17414FEA0C444FEA5B
:10110000910706FB07FC4FEA1C4C0CFB0BF7B0EBFE
:10111000C74072EB573203FB0CF734BFA2EBC74258
:10112000B2EBC74261EB57310CFB0EF7B0EBC700D7
:1011300072EB57720CFB08F734BFA2EBC702B2EB9D
:10114000C70261EB5771039F4FEA816141EA921137
:1011500004EBCC044FEAD1374FEA826206FB07FC6E
:1011600042EA90124FEA80604FEA1C4C0CFB0BF7EE
:10117000D21B03FB0CF761EB07010CFB0EF7B0EB86
:10118000074072EB17420CFB08F734BFA2EB074293
:10119000B2EB074261EB17414FEA8C554FEA9107DA
:1011A00004EB9C2406FB07FC4FEA1C4C0CFB0BF7E2
:1011B000B0EBC74072EB573203FB0CF734BFA2EB26
:1011C000C742B2EBC74261EB57310CFB0EF7B0EBF5
:1011D000C70072EB57720CFB08F734BFA2EBC702D3
:1011E000B2EBC70261EB577115EB4C254FEA8161F9
:1011F00041EA92114FEA82624FEAD13742EA9012F5
:1012000006FB07FC44F100044FEA80604FEA1C4CE7
:101210000CFB0BF7D21B03FB0CF761EB07010CFB7C
:101220000EF7B0EB074072EB17420CFB08F734BF28
:10123000A2EB0742B2EB074261EB174115EB1C151D
:101240004FEA813141EA92414FEA823242EA9042CA
:101250004FEA80304FEA0C7644F1000448EA034339
:101260004EEA0B484FF0000EB2EB080C71EB03078F
:1012700024BF624639464EEB0E0E4FF0000B0018AD
:10128000524149414BEB0B0BB2EB080C71EB0307DE
:101290007BF1000B24BF624639464EEB0E0E4FF039
:1012A000000B0018524149414BEB0B0BB2EB080C01
:1012B00071EB03077BF1000B24BF624639464EEB0E
:1012C0000E0E51EA020718BF46F0010616EB0E7625
:1012D00055F1000254F1000103D5BDE88901BDE8D4
:1012E0000088BDE88901BDE80048B619524141EBCC
:1012F0000101A3F10103704780807F7E7D7C7B7AB2
:101300007978777676757473727171706F6E6E6DB1
:101310006C6C6B6A6A696868676666656464636357
:1013200062616160605F5F5E5E5D5D5C5C5B5B5ADD
:101330005A5959585857575656555555545453534A
:1013400052525251515050504F4F4F4E4E4D4D4DA5
:101350004C4C4C4B4B4B4A4A4A49494948484847F0
:10136000474747464646454545444444444343432E
:101370004342424242414141002B9C4630D47700D7
:101380002BD01CB54FEA370703B44FF010004FF0D5
:101390001001BAF1000F06D0BCF1000FDCBF40F025
:1013A000080040F008014FF000000FBCBDE81040FD
:1013B0000BF1010BBBF1010F08BF5FEA170722BF5A
:1013C00012F1010211F101014FF0004143F100035C
:1013D00000F0004043EA00007047F9D35708D0E717
:1013E00046EA064613F1400F4FEA16461FDD13F199
:1013F000200FDFBF16430A46002120335B42BED0D8
:10140000C3F1200746EA064602FA07F74FEA1646F6
:1014100046EA0706C3F1200722FA03F201FA07F7AA
:1014200021FA03F14FF0000342EA0702A7E746EA78
:10143000020646EA06464FEA164646EA0106BCBFE1
:1014400046EA0646360C4FF000034FF000024FF01C
:10145000000194E72DE9804C9A46934670B491E8D8
:10146000380007C831EA400C48BF34EA430C03D5C2
:10147000FFF7E6FDFFF780FFF0BCBDE8008C2DE92B
:10148000804C9A46934670B491E8380007C810F033
:10149000804F08BF13F0804F03D100F005F8FFF72D
:1014A0006BFFF0BCBDE8008C20F07F4780EA0300B2
:1014B00023F07F4C07EB0C03A3F57C5300F00040B6
:1014C000A3F1FE0392F0000F00F0B38095F0000F3F
:1014D00000F077802DE901494FEA11404FEA1446A8
:1014E00021EA004800FB06FC24EA064708FB06F652
:1014F00007FB08F800FB07F718EB06484CEB164C07
:101500004FEA124B18EB07484FEA15464CEB1740D1
:1015100022EA0B4E0BFB06FC25EA06470EFB06F6FD
:1015200007FB0EFE0BFB07F71EEB064E4CEB164CB3
:101530004FF000061EEB074E4CEB174B18EB0B0859
:1015400040F1000018EB0E0B58EB000840F10000D2
:101550008F1A4FF000013CBFC943661B14BFB5EBA7
:10156000040C00213CBFC943F61B4FEA17444EEA66
:101570008E0E27EA04454FEA1C4704FB07622CEA5B
:10158000074C05FB07F70CFB05F604FB0CFC16EB00
:10159000074642EB174216EB0C4642EB1C421BEB94
:1015A000060658EB0202414146EA9E0601D5BDE817
:1015B0000189B619524141EB0101A3F10103BDE8D4
:1015C00001894FEA14454FEA114724EA054621EA0A
:1015D000074C05FB07F406FB07F70CFB06F105FBC0
:1015E0000CFC11EB074144EB17444FEA124711EB97
:1015F0000C4144EB1C4422EA074C05FB07F206FBB6
:1016000007F70CFB06F605FB0CFC16EB074642EB56
:10161000174216EB0C4642EB1C456A1854F10001C8
:1016200048BF7047B619524141EB0101A3F10103D4
:10163000704795F0000F37D04FEA11424FEA144738
:1016400021EA024624EA074C02FB07F106FB07F7F2
:101650000CFB06F402FB0CFC14EB074441EB1741B6
:101660004FEA154714EB0C4441EB1C4125EA074CAB
:1016700002FB07F506FB07F70CFB06F602FB0CFC6A
:1016800016EB074645EB174516EB0C4645EB1C429F
:10169000121951F1000148BF7047B619524141EB90
:1016A0000101A3F1010370474FEA14454FEA1147C6
:1016B00024EA054621EA074C05FB07F106FB07F77C
:1016C0000CFB06F24FF0000605FB0CFC12EB074288
:1016D00041EB174112EB0C4251EB1C4148BF7047E4
:1016E000921841EB0101A3F10103704721B1826817
:1016F00042F00102826003E0826822F0010282600F
:10170000704700000021084A1168084A1140D0E9DA
:1017100000231A4383681A43C3681A431143044AD7
:10172000C2F804137047000004230140E030FCFFBE
:101730000020014021B1826842F48072826003E09F
:10174000826822F480728260704721B1826842F41C
:101750000072826003E0826822F400728260704747
:1017600030B50246002000235068104C20400D790F
:101770000C6844EA05242043506090680C4C2040DB
:10178000D1E903542C438D682C434D7944EA450438
:1017900020439060D06A20F470000C7D641EE4B297
:1017A000234340EA0350D06230BD0000FFFEFFFC3F
:1017B000FDF7FFC0F0B504460D4600200021092DBD
:1017C00011DDE068A5F10A0606EB4607072606FAD2
:1017D00007F18843A5F10A0606EB460603FA06F16F
:1017E0000843E0600CE0206905EB4507072606FA90
:1017F00007F1884305EB450603FA06F1084320612B
:10180000072A0FDA606B561E06EB86071F2606FABC
:1018100007F18843561E06EB860605FA06F10843D3
:10182000606322E00D2A0FDA206BD61F06EB8607D5
:101830001F2606FA07F18843D61F06EB860605FA2F
:1018400006F10843206310E0E06AA2F10D0606EB02
:1018500086071F2606FA07F18843A2F10D0606EB5C
:10186000860605FA06F10843E062F0BD816841F0A2
:10187000804181607047000030B59BB005460C4642
:1018800001214C4800F0A0FA0121080200F0BCFA46
:10189000FE20199003208DF8680000208DF86B0061
:1018A00019A9454800F0FAF800200090434801903B
:1018B000029500200390049405904FF480600690F8
:1018C00040000790800008904011099000020A90A3
:1018D00000200B9003200C9000200D900E90694684
:1018E000374800F07DF80121354800F06DF8002000
:1018F0001590189017904FF48030169015A8FFF7A8
:1019000001FF00200F9001208DF840008DF841006C
:1019100000201190139007208DF850000FA9274840
:101920004C38FFF71DFF00230122114623484C3895
:10193000FFF740FF00230222114620484C38FFF7F2
:1019400039FF0023032211461C484C38FFF732FFB1
:1019500000230422114619484C38FFF72BFF0023BF
:101960000522114615484C38FFF724FF00230622B4
:10197000114612484C38FFF71DFF0023072211467D
:101980000E484C38FFF716FF01210C484C38FFF782
:10199000DCFE012109484C38FFF7CCFE0121074845
:1019A0004C38FFF7A3FE05484C38FFF75FFF1BB02C
:1019B00030BD000001004000000002404C2001400A
:1019C0001064024000BFFEE721B1026842F001024C
:1019D000026003E0026822F001020260704700002A
:1019E00010B500220268134B1A40CC680B682343E1
:1019F0004C6923438C692343CC6923430C6A2343FA
:101A00004C6A23438C6A23434C6B23438C6B2343E4
:101A10001A430260426922F00702D1E90B342343E2
:101A20001A4342610B6943604B6883608B68C360F3
:101A300010BD00003F801CF0704700001CB5012164
:101A4000302000F0C1F91A20009001208DF8040028
:101A500000208DF8060003208DF8050002208DF887
:101A6000070069460B4800F019F84FF4D050009079
:101A700001208DF8040000208DF8060003208DF869
:101A8000050002208DF807006946034800F006F8BB
:101A90001CBD00000014024000100240F0B50A46D0
:101AA00000210023002400BF3DE0012505FA01F3D9
:101AB000156805EA03049C4234D105684F000326EB
:101AC000BE40B543056015794E00B5400668354304
:101AD00005601579012D02D01579022D16D1856882
:101AE0004F000326BE40B543856055794E00B54092
:101AF000866835438560456801268E40B54345605C
:101B0000456896798E40B6B235434560C5684F004A
:101B10000326BE40B543C560D5794E00B540C668C2
:101B20003543C560491C1029BFD3F0BDF0B5002373
:101B300000244D07ED0E02FA05F3CE1000F120054A
:101B400055F826504E07F70E0F26BE40B543CF106E
:101B500000F1200646F82750CE1000F1200555F878
:101B6000265045EA0304CE1000F1200545F8264032
:101B7000F0BD0246002013690B400BB1012000E0CC
:101B800000207047418370470183704700BFFEE724
:101B90001CB50121102000F017F90820009000204A
:101BA0008DF8040003208DF8050001208DF8070052
:101BB00069460448FFF772FF08210248FFF7E4FF77
:101BC0001CBD00000010024010B5044614B10120F5
:101BD0001949087018480078E8B110211748FFF734
:101BE000C8FF20B108211548FFF7C3FF98B90A20A4
:101BF00003F026F800201049087010210F48FFF765
:101C0000B8FF08B9012010BD08210C48FFF7B1FF4B
:101C100078B90220F7E710210848FFF7AAFF01284A
:101C200007D108210548FFF7A4FF012801D1024987
:101C300008700020E7E70000340000200010024098
:101C40001CB50121202000F0BFF84FF4C0600090C7
:101C500001208DF8040000208DF8060003208DF887
:101C6000050001208DF8070069460448FFF716FFBC
:101C70004FF4C0610148FFF787FF1CBD001402400C
:101C80001CB50121302000F09FF864200090012055
:101C90008DF8040000208DF8060003208DF8050063
:101CA00002208DF8070069460B48FFF7F7FE4FF456
:101CB0001450009001208DF8040000208DF80600DB
:101CC00003208DF8050002208DF8070069460348BF
:101CD000FFF7E4FE1CBD00000014024000100240AB
:101CE00000BFFEE77047000070B5002100230F22FF
:101CF000C4781CB3174C246804F4E064C4F5E064B1
:101D0000C4F30721C1F10404E3B20A4144789C40C2
:101D1000E1B28478144021430C07210E0E4C057863
:101D20006155047804F01F050124AC4005786D115D
:101D3000AD0005F1E025C5F8004109E0047804F0A4
:101D40001F050124AC40054D0678761145F8264064
:101D500070BD00000CED00E000E400E080E100E078
:101D600002490143024A1160704700000000FA0571
:101D70000CED00E01CB50121202000F025F84FF407
:101D8000C070009001208DF8040000208DF806003E
:101D900003208DF8050001208DF8070069460448EE
:101DA000FFF77CFE4FF4C0710148FFF7EBFE1CBD4E
:101DB0000014024010B54FF4C0710248FFF7E4FE72
:101DC00010BD00000014024029B1064A1268024307
:101DD000044B1A6004E0034A12688243014B1A6004
:101DE000704700003038024029B1064A12680243A9
:101DF000044B1A6004E0034A12688243014B1A60E4
:101E0000704700004038024029B1064A1268024378
:101E1000044B1A6004E0034A12688243014B1A60C3
:101E20007047000044380240F0B500210022002431
:101E3000022500260223324F3F6807F00C0121B132
:101E4000042905D0082937D105E02E4F076036E078
:101E50002D4F076033E02A4F3F1F3F68C7F380567E
:101E6000274F3F1F3F6807F03F036EB1264FB7FB78
:101E7000F3F7DFF88CC0ACF1040CDCF800C0CCF355
:101E8000881C07FB0CF40CE01E4FB7FBF3F7DFF8E0
:101E900070C0ACF1040CDCF800C0CCF3881C07FB6C
:101EA0000CF4174F3F1F3F68C7F301477F1C7D00AD
:101EB000B4FBF5F7076002E0124F076000BF00BFF8
:101EC0000F4F3F6807F0F0010909104F7A5C07686F
:101ED000D74047600A4F3F6807F4E051890A0B4F2B
:101EE0007A5C4768D7408760054F3F6807F46041D8
:101EF000490B064F7A5C4768D740C760F0BD0000C9
:101F0000083802400024F40000127A007200002019
:101F10000CB50020019000903448006840F48030F7
:101F20003249086000BF3148006800F4003000907A
:101F30000198401C0190009818B90198B0F5A04F85
:101F4000F1D12A48006800F4003010B1012000905F
:101F500001E0002000900098012846D1234840303D
:101F6000006840F0805021494031086020480068F6
:101F700040F440401E4908601C48083000681B4976
:101F8000083108600846006840F4004008600846D0
:101F9000006840F4A05008601648091F0860081F38
:101FA000006840F08070091F086000BF0F4800689B
:101FB00000F000700028F9D040F205700E4908606A
:101FC0000A480830006820F003000849083108601A
:101FD0000846006840F00200086000BF034808306F
:101FE000006800F00C000828F8D10CBD0038024051
:101FF0000070004008544007003C0240042808D10B
:102000004FF0E021096941F004014FF0E022116135
:1020100007E04FF0E021096921F004014FF0E022D0
:102020001161704710B503F051FD012801D003F094
:1020300017F910BD10B51548006840F47000134939
:1020400008601348006840F0010011490860002052
:102050000F49083108600E4800680E4908400C49D5
:1020600008600D48091D0860081F006820F48020E2
:10207000091F0860002006490C310860FFF748FF7F
:102080004FF0006001498039086010BD88ED00E024
:1020900000380240FFFFF6FE1030002410B540F279
:1020A00025511D4800F087F810B31B4800F03CF99B
:1020B000C4B21A48008800F40040C8B91748008824
:1020C00000F4804060B10A2C03D00020134908803E
:1020D00020E01248008840F400401049088019E0D0
:1020E0000D2C06D10D48008840F480400B49088033
:1020F00010E00A480088C0F30D0009490C54074855
:102100000088401C0549088008460088C72801DD72
:102110000020088010BD0000001001407000002069
:10212000E80A002008B540F22551084800F043F8BD
:1021300050B1064800F0F8F8C0B20090012269469C
:10214000034802F00EF900BF08BD00000044004043
:10215000D009002008B540F22551084800F02BF8BE
:1021600050B1064800F0E0F8C0B200900122694684
:10217000034802F0F6F800BF08BD00000048004028
:10218000DC0A002021B1828942F40052828104E0FD
:1021900082894DF6FF731A40828170470246002003
:1021A000B1F5007F00D100BF13880B400BB10120B7
:1021B00000E00020704770B502460024002300258F
:1021C000002040F66A16B14200D100BFC1F34215AB
:1021D00001F01F03012606FA03F3012D02D19689AF
:1021E000334006E0022D02D1168A334001E0968A80
:1021F00033400C12012606FA04F41688344013B159
:102200000CB1012000E0002070BDF0B503460024B1
:1022100000260025002040F66A17B94200D100BF11
:102220001846C1F3421401F01F06012707FA06F50C
:10223000012C01D10C3004E0022C01D1103000E05F
:1022400014301AB107682F43076002E00768AF43F4
:102250000760F0BD2DE9FF4705460E460024A14664
:1022600000BFA046B08900B100BF2C8A24F44054BE
:10227000F08804432C82AC8941F20C608443B0881E
:1022800031890843718908430443AC81AC8A24F442
:102290004074B0890443AC826846FFF7C5FD20480E
:1022A000854202D01F48854202D1DDF80C9001E042
:1022B000DDF80890A88900F4004040B109EBC9009E
:1022C00000EB091031684900B0FBF1F707E009EBBA
:1022D000C90000EB091031688900B0FBF1F76420F8
:1022E000B7FBF0F004012009642101FB1078A889F4
:1022F00000F4004040B1322000EBC800B0FBF1F028
:1023000000F00700044308E0322000EB08106421CD
:10231000B0FBF1F000F00F0004432C81BDE8FF8713
:10232000001001400014014001468888C0F30800F5
:102330007047C1F308028280704700BFFEE703B414
:1023400001984100009850EAC12018BF04204A0DAE
:1023500018BF40F0010040F2FF72B2EB515F08BFBE
:1023600040F00200012808BF052002B07047303855
:102370000A2801D2012070470020704700BF704733
:10238000002406E00020FFF71FFC04460A2002F0AC
:1023900057FC002CF6D0FFF70DFD04A0FDF7D4FF8D
:1023A00040F6B83002F04CFC00BFFEE750756D708F
:1023B0007320737461727465642E20436F6E74723F
:1023C0006F6C207461736B20626567696E20696E43
:1023D0002033207365636F6E64730D0A0000000084
:1023E00070B504460420FFF709FE0C48047025462A
:1023F0004FF47A7045430120094908804FF0E020EE
:10240000006940F002004FF0E02108610846456194
:10241000006940F00100086170BD00006800002004
:102420006A00002070B5044603F050FB012810D06C
:102430000B480088844206D309480088B4FBF0F5B5
:10244000284602F0FDFB06480088B4FBF0F100FBD3
:1024500011444FF47A7104FB01F000F003F870BDF1
:102460006A00002070B5034600224FF0E02675692F
:102470000D4E367803FB06F44FF0E026B16910E00C
:102480004FF0E026B06988420BD0884202D20E1A83
:10249000324402E02E1A0E4432440146A24200D3D6
:1024A00000E0EDE700BF70BD6800002000BF054AF6
:1024B000128802F04002002AF9D0C2B2014B9A8081
:1024C00070470000001001402DE9F0412DED068B12
:1024D00004460D461646002737883946AEA0FDF75C
:1024E00033FF384603F0F4FF41EC1A0B9FEDAC0BC1
:1024F00053EC102B03F094FE41EC190B9FEDAA0B4B
:1025000053EC102B03F0FCFF41EC180B03F0AEFD75
:1025100020607788384603F0DBFF41EC1A0B9FED13
:10252000A00B53EC102B03F07BFE41EC190B9FED3D
:102530009E0B53EC102B03F0E3FF41EC180B03F060
:1025400095FD6060B788384603F0C2FF41EC1A0B76
:102550009FED930B53EC102B03F062FE41EC190B33
:102560009FED910B53EC102B03F0CAFF41EC180BBD
:1025700003F07CFDA060F788384603F0A9FF41EC2A
:102580001A0B9FED870B53EC102B03F049FE41EC27
:10259000190B9FED850B53EC102B03F0B1FF41ECB1
:1025A000180B03F063FD28603789384603F090FF6D
:1025B00041EC1A0B9FED7A0B53EC102B03F030FE1D
:1025C00041EC190B9FED780B53EC102B03F098FFA7
:1025D00041EC180B03F04AFD68607789384603F038
:1025E00077FF41EC1A0B9FED6E0B53EC102B03F0B1
:1025F00017FE41EC190B9FED6C0B53EC102B03F005
:102600007FFF41EC180B03F031FDA860B789384615
:1026100003F05EFF41EC1A0B9FED610B53EC102BA6
:1026200003F0FEFD41EC190B9FED610B53EC102BF9
:1026300003F066FF41EC180B03F018FDE06094ED29
:10264000000A10EE101A084604F042F941EC1A0B89
:102650009FED590B53EC102B03F052FF41EC190B7B
:102660009FED570B53EC102B04F048F841EC180B7E
:1026700003F0FCFC206094ED010A10EE101A0846ED
:1026800004F026F941EC1A0B9FED4B0B53EC102B89
:1026900003F036FF41EC190B9FED490B53EC102B67
:1026A00004F02CF841EC180B03F0E0FC606094EDB2
:1026B000020A10EE101A084604F00AF941EC1A0B4F
:1026C0009FED3D0B53EC102B03F01AFF41EC190B5F
:1026D0009FED3B0B53EC102B04F010F841EC180B62
:1026E00003F0C4FCA06095ED000A10EE101A084635
:1026F00004F0EEF841EC1A0B9FED2F0B53EC102B6E
:1027000003F0FEFE41EC190B9FED2D0B53EC102B4B
:1027100003F0F4FF41EC180B03F0A8FC286095EDE2
:10272000010A10EE101A084604F0D2F841EC1A0B18
:102730009FED210B53EC102B03F0E2FE41EC190B43
:102740009FED1F0B53EC102B03F0D8FF41EC180B3F
:1027500003F08CFC686095ED020A10EE101A084632
:1027600004F0B6F841EC1A0B9FED130B53EC102B51
:1027700003F0C6FE41EC190B9FED110B53EC102B2F
:1027800003F0BCFF41EC180B03F070FCA860BDEC3B
:10279000068BBDE8F0810000256C640D0A00000086
:1027A000000000000000B0406666666666660A408B
:1027B00000000000000089405655555555D554403D
:1027C0000000000000405F40817801293CD1417940
:1027D000090209B20279114300EE101AF8EEC00A9C
:1027E0009FEDD11AC0EE811ADFEDD00A61EEA00A8A
:1027F000CF49C1ED000AC179090209B282791143BA
:1028000000EE101AF8EEC00A9FEDC71AC0EE811A4A
:10281000DFEDC60A61EEA00AC549C1ED010A417AA1
:10282000090209B2027A114300EE101AF8EEC00A4A
:10283000DFEDBD1A80EEA11ADFEDBC0A61EE200AC1
:10284000BB49C1ED020A6DE18178022940D141798D
:10285000090209B20279114300EE101AF8EEC00A1B
:102860009FEDB11AC0EE811AB249C1ED001AC179CB
:10287000090209B28279114300EE101AF8EEC00A7B
:102880009FEDA91AC0EE811AAA49C1ED011A417A39
:10289000090209B2027A114300EE101AF8EEC00ADA
:1028A0009FEDA11AC0EE811AA249C1ED021AC17AA8
:1028B000090209B2827A114300EE101AF8EEC00A3A
:1028C0009FED991AC0EE811A9A49C1ED031A29E1C8
:1028D000817803297DD14179090209B20279114336
:1028E000954AD180C179090209B282791143924A8D
:1028F0001181417A090209B2027A11438E4A51814B
:10290000C17A090209B2827A11438B4A1180417B54
:10291000090209B2027B1143874A5180C17B090237
:1029200009B2827B1143844A91801146B1F90610A5
:1029300000EE101AB8EEC00A9FED7B1AC0EE010A35
:102940007E4949787E4A515C00EE101AB8EE400A82
:1029500020EE800A784981ED060AB1F9081000EEF0
:10296000101AB8EEC00A9FED701AC0EE010A734942
:102970004978515C00EE101AB8EE400A20EE800A49
:102980006D4981ED070AB1F90A1000EE101AB8EE90
:10299000C00A9FED651AC0EE010A68494978515C8A
:1029A00000EE101AB8EE400A20EE800A624981ED6E
:1029B000080AB1F9001000EE101AB8EEC00A9FED37
:1029C0005A1AC0EE010A5D4909785E4A32F81110C0
:1029D00000E037E000EE101AB8EE400A20EE800A60
:1029E000554981ED030AB1F9021000EE101AB8EE54
:1029F000C00A9FED4D1AC0EE010A5049097832F81D
:102A0000111000EE101AB8EE400A20EE800A4A4972
:102A100081ED040AB1F9041000EE101AB8EEC00AF4
:102A20009FED411AC0EE010A4449097832F81110AD
:102A300000EE101AB8EE400A20EE800A3E4981ED01
:102A4000050A6FE08178042925D14179090209B28C
:102A5000027911433C4A1180C179090209B2827995
:102A60001143394A5180417A090209B2027A11436D
:102A7000354A9180C17A090209B2827A114300EE87
:102A8000101AF8EEC00A9FED311AC0EE811A2E49D5
:102A9000C1ED021A46E08178052928D1C1790A06DC
:102AA000817942EA0142417942EA012102791143E6
:102AB000274A1160C17A0A06817A42EA0142417AC4
:102AC00042EA0121027A1143214A5160417B090205
:102AD00009B2027B114300EE101AF8EEC00A9FED16
:102AE0001B1AC0EE811A1A49C1ED021A1AE0817848
:102AF000062917D10279417942EA0121154A11804C
:102B00008279C17942EA0121124A5180027A417ADE
:102B100042EA01210F4A9180827AC17A42EA012178
:102B20000C4AD18070470000000000470000344389
:102B3000D8070020E4070020F40700204000002010
:102B4000D2690008CA690008180800200000C842BD
:102B50002408002038000020F8B506460C46002561
:102B6000304600F039F833E00121684601F09AFD63
:102B700028B39DF8000000F007F948B315484078E5
:102B8000552803D11348FFF71FFE21E01148407874
:102B9000AF281DD10F48C078012803D10D48007916
:102BA00020800AE00B48C078022806D10948017944
:102BB000407941EA002000B220800120F8BD0120C8
:102BC000FFF730FC681C85B2C82D01DD0020F5E759
:102BD000CAE70000300800201CB5044655208DF8D7
:102BE0000000AF208DF8010044F080008DF8020055
:102BF00001208DF8030000208DF804009DF80000EE
:102C00009DF8011008449DF8021008449DF8031037
:102C100008449DF804100844C0B28DF805006846C9
:102C200001F0ACFD1CBD7CB506460C461546552092
:102C30008DF80000AF208DF801008DF802608DF84E
:102C40000350E0B28DF80400022D1AD120128DF845
:102C500005009DF800009DF8011008449DF8021041
:102C600008449DF8031008449DF8041008449DF89A
:102C700005100844C0B28DF80600684601F07EFDDC
:102C800013E09DF800009DF8011008449DF8021023
:102C900008449DF8031008449DF804100844C0B28D
:102CA0008DF80500684601F069FD7CBD10B504464D
:102CB00019E00121164801F0F5FC60B114480078D4
:102CC00000F062F878B11348407855280BD11148CC
:102CD000FFF77AFD07E00120FFF7A4FB0E4800682C
:102CE000401C0D4908600C4800680A28E1D30B48D5
:102CF00090ED000A84ED010A90ED010A84ED000ACE
:102D000090ED020A84ED020A00200349086010BD1C
:102D1000440000203008002048000020D807002090
:102D200008B5012203210846FFF77DFF0122114665
:102D30000420FFF778FF012200210846FFF773FF08
:102D400069460320FFF708FFBDF800000D49087031
:102D500069460420FFF700FFBDF8000009494870EC
:102D600069460520FFF7F8FEBDF8000005498870A8
:102D700069460620FFF7F0FEBDF800000149C87063
:102D800008BD00004000002001463C4800780628AD
:102D90006DD2DFE800F0030D202B435C552904D1F0
:102DA0000120364A1070364801703648017062E0E2
:102DB000552901D0AF2905D10220304A1070304882
:102DC000417002E000202D4A10702E48007808441F
:102DD0002C4A10704FE02A4881700320274A107057
:102DE000284800780844274A107044E01C2911DC68
:102DF0002348C1700020244A1070002901DD0420FE
:102E000000E005201D4A10701E48007808441D4A45
:102E1000107002E00020194A10702CE01848001DC4
:102E2000194A1278815418480078401C164A1070CC
:102E3000144800780844134A10701148C078124AA8
:102E40001278904202D105200C4A107013E00D4810
:102E50000078884206D10B480078094A82F82000A1
:102E6000012070470020054A1070107003E0002018
:102E7000024A107000BF00BF0020F2E74C000020A3
:102E8000300800204D0000204E00002081780129EC
:102E90003CD14179090209B20279114300EE101ABE
:102EA000F8EEC00A9FEDD11AC0EE811ADFEDD00A0C
:102EB00061EEA00ACF49C1ED000AC179090209B249
:102EC0008279114300EE101AF8EEC00A9FEDC71A7E
:102ED000C0EE811ADFEDC60A61EEA00AC549C1ED58
:102EE000010A417A090209B2027A114300EE101A6E
:102EF000F8EEC00ADFEDBD1A80EEA11ADFEDBC0AC4
:102F000061EE200ABB49C1ED020A6DE18178022918
:102F100040D14179090209B20279114300EE101A39
:102F2000F8EEC00A9FEDB11AC0EE811AB249C1EDA8
:102F3000001AC179090209B28279114300EE101A10
:102F4000F8EEC00A9FEDA91AC0EE811AAA49C1ED98
:102F5000011A417A090209B2027A114300EE101AED
:102F6000F8EEC00A9FEDA11AC0EE811AA249C1ED88
:102F7000021AC17A090209B2827A114300EE101ACC
:102F8000F8EEC00A9FED991AC0EE811A9A49C1ED78
:102F9000031A29E1817803297DD14179090209B217
:102FA00002791143954AD180C179090209B2827927
:102FB0001143924A1181417A090209B2027A1143FE
:102FC0008E4A5181C17A090209B2827A11438B4A31
:102FD0001180417B090209B2027B1143874A51806B
:102FE000C17B090209B2827B1143844A9180114658
:102FF000B1F9061000EE101AB8EEC00A9FED7B1A68
:10300000C0EE010A7E4949787E4A515C00EE101AF2
:10301000B8EE400A20EE800A784981ED060AB1F93F
:10302000081000EE101AB8EEC00A9FED701AC0EE3C
:10303000010A73494978515C00EE101AB8EE400A53
:1030400020EE800A6D4981ED070AB1F90A1000EE01
:10305000101AB8EEC00A9FED651AC0EE010A684961
:103060004978515C00EE101AB8EE400A20EE800A52
:10307000624981ED080AB1F9001000EE101AB8EEAD
:10308000C00A9FED5A1AC0EE010A5D4909785E4AEE
:1030900032F8111000E037E000EE101AB8EE400AE6
:1030A00020EE800A554981ED030AB1F9021000EEC5
:1030B000101AB8EEC00A9FED4D1AC0EE010A504931
:1030C000097832F8111000EE101AB8EE400A20EE1E
:1030D000800A4A4981ED040AB1F9041000EE101A81
:1030E000B8EEC00A9FED411AC0EE010A44490978C2
:1030F00032F8111000EE101AB8EE400A20EE800AE5
:103100003E4981ED050A6FE08178042925D1417996
:10311000090209B2027911433C4A1180C1790902BE
:1031200009B282791143394A5180417A090209B2C0
:10313000027A1143354A9180C17A090209B2827A32
:10314000114300EE101AF8EEC00A9FED311AC0EEDE
:10315000811A2E49C1ED021A46E08178052928D14D
:10316000C1790A06817942EA0142417942EA0121A4
:1031700002791143274A1160C17A0A06817A42EA2C
:103180000142417A42EA0121027A1143214A516007
:10319000417B090209B2027B114300EE101AF8EEDE
:1031A000C00A9FED1B1AC0EE811A1A49C1ED021A1E
:1031B0001AE08178062917D10279417942EA012182
:1031C000154A11808279C17942EA0121124A51805F
:1031D000027A417A42EA01210F4A9180827AC17AC9
:1031E00042EA01210C4AD1807047000000000047EC
:1031F00000003443540800206008002070080020BC
:1032000058000020DE690008D669000894080020F4
:103210000000C842A008002050000020F8B5064673
:103220000C460025304600F039F833E001216846AD
:1032300001F0B4FA28B39DF8000000F0CDF848B3CF
:1032400015484078552803D11348FFF71FFE21E0A9
:1032500011484078AF281DD10F48C078012803D10C
:103260000D48007920800AE00B48C078022806D17A
:1032700009480179407941EA002000B2208001200C
:10328000F8BD0120FFF7CEF8681C85B2C82D01DD1E
:103290000020F5E7CAE70000AC0800201CB5044692
:1032A00055208DF80000AF208DF8010044F080001B
:1032B0008DF8020001208DF8030000208DF8040035
:1032C0009DF800009DF8011008449DF80210084484
:1032D0009DF8031008449DF804100844C0B28DF80E
:1032E0000500684601F0C6FA1CBD7CB506460C46D2
:1032F000154655208DF80000AF208DF801008DF89F
:1033000002608DF80350E0B28DF80400022D1AD14E
:1033100020128DF805009DF800009DF8011008446A
:103320009DF8021008449DF8031008449DF804100D
:1033300008449DF805100844C0B28DF806006846A0
:1033400001F098FA13E09DF800009DF80110084480
:103350009DF8021008449DF8031008449DF80410DD
:103360000844C0B28DF80500684601F083FA7CBDC0
:1033700008B5012203210846FFF7B7FF01221146D5
:103380000420FFF7B2FF012200210846FFF7ADFF3E
:1033900069460320FFF742FFBDF800000D490870A1
:1033A00069460420FFF73AFFBDF80000094948705C
:1033B00069460520FFF732FFBDF800000549887017
:1033C00069460620FFF72AFFBDF800000149C870D2
:1033D00008BD00005800002001463C48007806283F
:1033E0006DD2DFE800F0030D202B435C552904D19A
:1033F0000120364A1070364801703648017062E08C
:10340000552901D0AF2905D10220304A107030482B
:10341000417002E000202D4A10702E4800780844C8
:103420002C4A10704FE02A4881700320274A107000
:10343000284800780844274A107044E01C2911DC11
:103440002348C1700020244A1070002901DD0420A7
:1034500000E005201D4A10701E48007808441D4AEF
:10346000107002E00020194A10702CE01848001D6E
:10347000194A1278815418480078401C164A107076
:10348000144800780844134A10701148C078124A52
:103490001278904202D105200C4A107013E00D48BA
:1034A0000078884206D10B480078094A82F820004B
:1034B000012070470020054A1070107003E00020C2
:1034C000024A107000BF00BF0020F2E76400002035
:1034D000AC080020650000206600002000BF00BF8F
:1034E00014A0FCF731FF24E01948008800F40040E4
:1034F000E0B11748057817A0FCF726FF00240DE07F
:103500001648015D1648FEF714FF00BF402114481D
:10351000FEF744FE0128F9D1601CC4B2AC42EFDBD7
:103520000CA0FCF711FF002009490880012001F0E0
:1035300087FBD9E76A6574736F6E20636F6D6D7575
:103540006E69636174652074657374200D0A0000F0
:10355000700000200D0A0D0A00000000E80A00209B
:10356000001001401CB5A820FEF73AFF4FF4E130EF
:1035700001F042F84FF4E13001F0A0F84FF4E130EF
:1035800001F018F9FEF75CFBFEF702FBFEF7F2FB19
:10359000FEF776FBFEF752FAFFF7C2FBFFF7E8FEF5
:1035A0004FF4A060FEF7DCFB08A0FCF7CDFE0E4850
:1035B000012100238022CDE900100CA10E4802F069
:1035C00003FA01F0D9FC00201CBD0000696E69748B
:1035D00069616C69736174696F6E20646F6E652ECA
:1035E0002E2E0D0A0000000000000020737461728E
:1035F000745F7461736B0000154500082DE9F0419C
:1036000005460E461C4807681C480068001D01F06E
:1036100041F950B91948006890F82C1001208840F1
:1036200017490968814316480160681C38B936B1EA
:1036300012480168091D134801F082F91AE07C194B
:103640000E4800684460BC4207D20C480168091D5E
:103650000D48006801F05AF90CE008480168091D9E
:103660000A48006801F052F909480068844201D212
:1036700007480460BDE8F081980000208400002025
:103680009C000020C00E00208C000020880000203C
:10369000B400002010B5044601F05EF9244800682B
:1036A000401C234908602348006840B92148046051
:1036B0000846006801280DD100F024FA0AE01E48EF
:1036C000006838B91B480068C06AE16A884201D8BE
:1036D0001848046019480068401C184908600846EA
:1036E0000068606494F82C1001208840144909682F
:1036F000084313490860E16A01EB8101114A02EBBA
:103700008100211D01F01CF901F06AF90A480068E6
:1037100068B108480068C06AE16A884207D24FF081
:10372000805009490860BFF34F8FBFF36F8F10BD02
:103730009400002084000020A0000020B0000020A1
:103740009C000020F00B002004ED00E008B501F023
:1037500003F912480068E8B9114801F0C7F81148A8
:1037600001F0C4F80E48104908600E480F4908607F
:1037700000200F4B0F4A10210090052001F0C6FDDC
:10378000064908600846006820B10BA1034800689C
:1037900001F01AFA01F024F908BD0000C800002069
:1037A000D40E0020E80E0020C0000020C40000203D
:1037B000FC0E0020500F0020546D725100000000DC
:1037C00070B523E001F042FC1348006808B90120FD
:1037D00000E00020054602F005FBBDB901F0BCF891
:1037E0000D48C068C468201D01F054F80B480068FB
:1037F000401E0A4908600A480068401E08490860DF
:1038000001F0EEF8204600F061F800BF04480068BF
:103810000028D7D170BD0000AC0E0020940000201D
:103820009000002070B504460D46206C70B1216CEC
:10383000E0680844E0606168E068884201D320687D
:10384000E0602846226CE168FCF7A0FE70BD2DE91F
:10385000F04104460F4615464FF00008A66B206C59
:1038600040B9206860BB606802F0F6F9804600202D
:10387000606025E07DB93946226CA068FCF786FEC1
:10388000216CA0680844A060D4E90110884217D3D5
:103890002068A06014E03946226CE068FCF776FEF0
:1038A000216CE068401AE0602168E068884203D239
:1038B000216C6068401AE060022D01D106B1761ECD
:1038C000701CA0634046BDE8F081000010B50446BE
:1038D00094F8590030B9206B01F0BAF8204601F095
:1038E000B7F815E094F85900012803D1204601F0FB
:1038F000AFF80DE094F85900022801D1012000E052
:10390000002028B940F6296202A107A0FCF71CFD9F
:1039100010BD00002E2E5C4672656552544F535CFC
:103920007461736B732E63004572726F723A257304
:103930002C25640D0A0000000146084A126812682E
:103940000AB9012200E000220A600A6822B9034A8B
:103950001268D268106800E000207047C0000020A4
:1039600030B54FF4A043174800F007042CB1C01D38
:1039700020F00700134C041B1B1B0246124C226054
:103980000024114D6C60D018083820F007000F4C4F
:10399000206000240D4D2D686C600C4D2D682C604E
:1039A0001146441A4C60094C24680C60084D4C6860
:1039B0002C60084D4C682C604FF00044064D2C6084
:1039C00030BD0000A00F0020E0000020E800002033
:1039D000F0000020EC000020F400002000BFFFF702
:1039E000EFFE064800680128F9D94FF080500449DD
:1039F0000860BFF34F8FBFF36F8FF0E7F00B00202D
:103A000004ED00E02DE9F04106460D4617469846C4
:103A1000069C0DB9246000E02760E663256401215F
:103A2000204601F0BFFD84F850800020A064BDE86E
:103A3000F08100002DE9F05F82460F4690469B46DC
:103A40000A9E0C9C4FEA8801A522206BFCF7E3FD3F
:103A5000A8F10100216B01EB800929F0070909F0A9
:103A6000070008B9012000E0002028B940F22B32FD
:103A70001BA120A0FCF768FC002507E0795D04F19C
:103A800034004155785D00B902E06D1C102DF5D36E
:103A900000BF002143200155202E00D31F26E662DF
:103AA000E66400202065201D00F02DFF04F11800C1
:103AB00000F029FF2461C6F12000A06164620020AB
:103AC000606584F858005A465146484600F004FCA8
:103AD00020600B9808B10B980460BDE8F09F0000CF
:103AE0002E2E5C4672656552544F535C7461736B45
:103AF000732E63004572726F723A25732C25640D24
:103B00000A00000010B5002407E004EB84010F4A0E
:103B100002EB810000F0EAFE641C202CF5D30C4877
:103B200000F0E4FE0B4800F0E1FE0B4800F0DEFE82
:103B30000A4800F0DBFE0A4800F0D8FE04480949B4
:103B4000086004480849086010BD0000F00B002020
:103B5000700E0020840E0020980E0020AC0E002075
:103B6000C00E0020880000208C00002010B5014607
:103B7000164800E0006803688B42FBD302464368A6
:103B800013448B4204D143684C682344436001468C
:103B90000A464B6813440468A34211D10C4C0368D5
:103BA0002468A34208D04B680468646823444B60CF
:103BB00003681B680B6005E0054B1B680B6001E0A8
:103BC00003680B60884200D0016010BDE000002057
:103BD000E80000202DE9F04104460D4616461F4638
:103BE0004FF0000865602461B5420CD8F01BA16954
:103BF000884202D34FF0010811E0211D09480068F6
:103C000000F084FE0BE0BE4204D2BD4202D34FF06E
:103C1000010804E0211D0448006800F077FE4046DA
:103C2000BDE8F081C4000020C000002070B505464A
:103C300000F092FEA86B08B9012400E0002400F017
:103C4000CFFE204670BD70B5054600F085FEA86B1E
:103C5000E96B884201D1012400E0002400F0C0FE9D
:103C6000204670BD2DE9F3410D460098846C002775
:103C70002CB940F6CE121AA11EA0FCF765FBA06B72
:103C8000E16B884201D2012000E0002028B940F613
:103C9000CF1213A117A0FCF757FBA06BE16B884272
:103CA0001BD294F945602A4669462046FFF7CFFDAE
:103CB0000746701C60B9606A08B9012000E0002066
:103CC00050B904F1240002F033F828B1012703E0D1
:103CD000701C40B284F8450000BF3846BDE8FC8146
:103CE0002E2E5C4672656552544F535C7175657536
:103CF000652E63004572726F723A25732C25640D30
:103D00000A000000F8B505460F4613480068C06871
:103D1000C468201D00F0BEFDE069012818D1A0692B
:103D200041192B463A462046FFF754FF80B1002048
:103D300003462A4601460090204602F02FF9064627
:103D40002EB94FF4027205A10AA0FCF7FDFA00BFDC
:103D50002046616A8847F8BDC00000202E2E5C46D0
:103D600072656552544F535C74696D6572732E634E
:103D7000000000004572726F723A25732C25640DA5
:103D80000A000000F0B587B073E0039800280CDA51
:103D900004AE2EB940F2E7223BA141A0FCF7D4FAD1
:103DA000D6E90020B168904700BF0398002860DB87
:103DB000059C606908B9012000E0002010B9201DB1
:103DC00000F068FD02A800F0C9F8054603980A282B
:103DD0004DD2DFE800F00905072C2E4506082D2FEF
:103DE00000BF00BF00BF00BF0498A269811803464E
:103DF0002A462046FFF7EEFEC0B12046616A88479A
:103E0000E069012812D1002000900498A1694218AD
:103E100000231946204602F0C1F807462FB940F2A8
:103E2000213219A11EA0FCF78FFA00BF20E000BFCD
:103E30001EE000BF0498A061A06908B1012000E065
:103E4000002028B94FF44E720FA115A0FCF77CFAA0
:103E5000A06941192B462A462046FFF7BBFE07E022
:103E600094F82C0010B9204600F0F2FD00E000BFED
:103E700000BF00231A4603A90D48006801F0AEFAFE
:103E8000002882D107B0F0BD2E2E5C4672656552C7
:103E9000544F535C74696D6572732E6300000000AB
:103EA0004572726F723A25732C25640D0A0000006A
:103EB000C8000020F8B505460C4601F0C7F8684672
:103EC00000F04CF80646009820BB44B9B54206D82D
:103ED00001F088FF31462846FFF714FF1CE03CB193
:103EE0000E480068006808B9012000E00020044680
:103EF000A91B22460A48006800F07CFE01F072FF10
:103F000050B94FF0805007490860BFF34F8FBFF39F
:103F10006F8F01E001F066FFF8BD0000C4000020D3
:103F2000C800002004ED00E00A490968096809B9E1
:103F3000012100E0002121B14FF0FF31064A11605C
:103F400006E004490968C968C868034A4168116005
:103F50007047000088000020B400002070B50446BF
:103F600001F0C4FD054607480068854204D200F010
:103F70000BF80120206001E000202060014805606E
:103F8000284670BDD00000202DE9F8432DE02148DF
:103F90000068C06805681F480068C068C468201DC4
:103FA00000F078FC2046616A8847E06901281CD14E
:103FB000A0694619AE4207D966602461211D1548E3
:103FC000006800F0A3FC10E0002003462A460146EA
:103FD0000090204601F0E2FF07462FB940F29232EE
:103FE0000DA113A0FCF7B0F900BF0A4800680068F3
:103FF00008B9012000E000200028C8D00548D0F80A
:1040000000800F480068034908600D48C0F8008030
:10401000BDE8F883C00000202E2E5C467265655214
:10402000544F535C74696D6572732E630000000019
:104030004572726F723A25732C25640D0A000000D8
:10404000C40000200C480068401C08B9012000E0B2
:10405000002028B940F20F1208A113A0FCF774F950
:1040600000BF502080F31188BFF34F8FBFF36F8FD5
:1040700000BF00BFFEE70000D40000202E2E5C46EB
:1040800072656552544F535C706F727461626C65F7
:104090005C525644535C41524D5F434D34465C7014
:1040A0006F72742E630000004572726F723A25734E
:1040B0002C25640D0A00000008B500BF6846FFF714
:1040C0003BFC044620460099FFF7F4FEFFF75AFE3A
:1040D000F4E770B5044600F03FFC94F945501AE04F
:1040E000A06C38B100212046FFF7BCFD88B100F07C
:1040F00067FE0EE0606A08B9012000E0002038B9D0
:1041000004F1240001F014FE18B100F059FE00E0A3
:1041100003E0681E45B2002DE2DC00BFFF2084F8FA
:10412000450000F05DFC00F017FC94F9445010E0ED
:10413000206908B9012000E0002048B904F110000E
:1041400001F0F6FD08B100F03BFE681E45B200E04C
:1041500001E0002DECDC00BFFF2084F8440000F0FB
:104160003FFC70BD2DE9F04104464FF0000800F01F
:104170006DFF3E48006808B9FFF7F2FB3C48006855
:10418000204000285FD1A4B1083404F0070080B1BA
:1041900004F00700C0F10800044404F0070008B967
:1041A000012000E0002020B9BF2232A13BA0FCF793
:1041B000CBF8002C47D03D480068844243D83C4EA1
:1041C0003046056801E02E462D686868A04202D29C
:1041D00028680028F7D125480068854233D0306828
:1041E00000F10808286830606868001B102813D99F
:1041F0002F1907F0070008B9012000E0002020B9BE
:10420000EC221CA125A0FCF79FF86868001B7860D1
:104210006C603846FFF7AAFC244968680968081AE8
:10422000224908600846006822490968884203D28A
:104230001E4800681F4908600D49686809680843FE
:1042400068600020286001F0CDFD08F0070008B983
:10425000012000E0002028B94FF4967205A10FA0BC
:10426000FCF772F84046BDE8F0810000E80000204D
:10427000F40000202E2E5C4672656552544F535C4C
:10428000706F727461626C655C4D656D4D616E67D7
:104290005C686561705F342E630000004572726F68
:1042A000723A25732C25640D0A000000EC000020F2
:1042B000E0000020F00000200648006830B1054909
:1042C000096801F15000096D491C0160014800684E
:1042D0007047000084000020001F4FF080730360CF
:1042E000001F21F001030360001F054B0360143819
:1042F0000260001F6FF00203036020387047000067
:104300004540000800B50346184600F005F89988B6
:10431000081A401E80B200BD0146C8880A89904232
:1043200004DBC8880A89801A80B2704788880A89A5
:10433000801ACA88104480B2F7E770B50B46002196
:104340000CE05C5CC6880568AC55C488641C858834
:1043500094FBF5F605FB1644C480491C9142F0DB42
:1043600070BDF0B505460E4614462846FFF7CAFF55
:104370000746A74201DA0120F0BD22463146284611
:10438000FFF7DBFF0020F7E7016082800023C38096
:1043900003817047F0B503460E4614461846FFF7F2
:1043A000BBFF0546A54200DD254600200CE01A892A
:1043B0001968895C31541989491C9A8891FBF2F774
:1043C00002FB17111981401CA842F0DB2846F0BD02
:1043D0002DED0E8B96B007214248FDF74DFA414A6C
:1043E0000FA912A8FEF770F80223002212A93E4876
:1043F000006801F02FF9012000F022FC394A0FA9D2
:1044000012A8FEF761F80223002212A936480068BC
:1044100001F020F9012000F013FC62E0314A0FA9FD
:1044200012A8FEF751F80CA8FEF740FC0A2000F095
:1044300007FC00F091FA9DED0E0A10EE101A0846E6
:1044400002F046FA41EC180B9DED0C0A10EE101A22
:10445000084602F03DFA41EC190B9DED0D0A10EEF5
:10446000101A084602F034FA41EC1A0B9DED150AB9
:1044700010EE101A084602F02BFA41EC1B0B9DEDD2
:10448000140A10EE101A084602F022FA41EC1C0B36
:104490009DED130A10EE101A084602F019FA41ECCD
:1044A0001D0B9DED120A10EE101A084602F010FACC
:1044B00041EC1E0B8DED0A8B8DED089B8DED06AB4F
:1044C0008DED04BB8DED02CB8DED00DB53EC1E2B8F
:1044D00006A0FBF739FF00F083FA4FF4FA7000F002
:1044E000AFFB9BE7F800002010000020252E32666D
:1044F00020252E326620252E326620252E3266207B
:10450000252E326620252E326620252E32660D0A93
:10451000000000001CB5044600F01EFA0022102125
:10452000012000F0B7FE1F49086000220C21012085
:1045300000F0B0FE1C49086000220C21012000F0B0
:10454000A9FE1A49086000220C21012000F0A2FEF9
:1045500017490860174802210023CA01CDE900105D
:1045600015A1184801F030FA1748032100234FF431
:104570008072CDE9001015A1184801F025FA1848FD
:10458000032100234FF48072CDE9001015A11848D3
:1045900001F01AFA1748006800F08CFB00F020FACE
:1045A0001CBD000010000020140000201800002096
:1045B0001C0000200400002073656E736F725F742E
:1045C00061736B00D143000808000020636F6E74B4
:1045D000726F6C5F7461736B0000000081230008D0
:1045E0000C0000206A6574736F6E5F7461736B00FA
:1045F000DD3400080000002010B588B00446012119
:104600000846FDF7E1FB01211020FDF7FDFB072225
:1046100009212248FDF78AFA07220A211F48FDF7DF
:1046200085FA4FF4C060069002208DF81C008DF8CA
:104630001D0000208DF81E0001208DF81F0006A926
:104640001648FDF72BFA02940020ADF80C00ADF8E7
:104650000E00ADF81000ADF814000C20ADF81200FB
:1046600002A90F48FDF7F6FD01210D48FDF78AFD6F
:10467000012240F225510A48FDF7C7FD25208DF89B
:10468000040003208DF805008DF8060001208DF848
:10469000070001A8FDF728FB08B010BD000002408C
:1046A0000010014070B504460D462A4621460248D6
:1046B000FFF770FE70BD0000D009002010B588B073
:1046C000044601210820FDF77FFB01214804FDF786
:1046D0008BFB072205212548FDF728FA0722062132
:1046E0002248FDF723FA6020069002208DF81C0076
:1046F0008DF81D0000208DF81E0001208DF81F0090
:1047000006A91A48FDF7CAF926208DF804000320EF
:104710008DF805008DF8060001208DF8070001A82E
:10472000FDF7E2FA02940020ADF80C00ADF80E009F
:10473000ADF81000ADF814000C20ADF8120002A97D
:104740000B48FDF787FD012240F225510848FDF78F
:104750005CFD01210648FDF715FD4FF48072054907
:104760000548FFF711FE08B010BD0000000C024024
:1047700000440040D0080020D009002010B50446B5
:1047800021780548FDF7D5FD00BF80210248FDF7DF
:1047900005FD0028F9D010BD0044004070B5044666
:1047A0000D462A4621460248FFF7F4FD70BD000081
:1047B000DC0A002010B588B0044601210220FDF774
:1047C00003FB01218804FDF70FFB07220A2125487E
:1047D000FDF7ACF907220B212248FDF7A7F94FF4AA
:1047E0004060069002208DF81C008DF81D0000200E
:1047F0008DF81E0001208DF81F0006A91948FDF74D
:104800004DF927208DF8040003208DF805008DF860
:10481000060001208DF8070001A8FDF765FA029453
:104820000020ADF80C00ADF80E00ADF81000ADF8AA
:1048300014000C20ADF8120002A90B48FDF70AFD88
:10484000012240F225510848FDF7DFFC012106480E
:10485000FDF798FC4FF4807204490548FFF794FD7A
:1048600008B010BD0004024000480040DC090020F0
:10487000DC0A002010B5044621780548FDF759FDF3
:1048800000BF80210248FDF789FC0028F9D010BD47
:104890000048004001460A69D1E901309860D1E939
:1048A000010358605068884201D188685060002038
:1048B00008611068401E106010687047034B036069
:1048C000034B0B608223136070470000100300202D
:1048D00008010020034B0360034B0B60822313602D
:1048E000704700007C0700206C03002000F10801E5
:1048F00041604FF0FF31816000F10801C16001614A
:1049000000210160704700210161704710B5024627
:104910000B685C1C0CB9106907E002F1080000E0AC
:104920004068446824689C42FAD944684C604C68EA
:10493000A160886041600A611468641C146010BD45
:1049400042684A6093688B6093685960916008611F
:1049500003685B1C0360704710B500BF502080F3F4
:104960001188BFF34F8FBFF36F8F00BF0B480068F4
:10497000401C0A4908600846006801280DD1084813
:104980000068C0B208B9012000E0002028B940F258
:10499000B91204A10EA0FBF7D7FC10BDD400002073
:1049A00004ED00E02E2E5C4672656552544F535C58
:1049B000706F727461626C655C525644535C415214
:1049C0004D5F434D34465C706F72742E630000007F
:1049D0004572726F723A25732C25640D0A0000002F
:1049E00010B50B48006828B94FF4E07209A114A073
:1049F000FBF7AAFC06480068401E05490860084607
:104A0000006820B9002080F3118800BF00BF10BDEE
:104A1000D40000202E2E5C4672656552544F535CC4
:104A2000706F727461626C655C525644535C4152A3
:104A30004D5F434D34465C706F72742E630000000E
:104A40004572726F723A25732C25640D0A000000BE
:104A500070B506463546002E35D0083D2C461A491D
:104A600060680968084008B1012000E0002028B90A
:104A70004FF4A07215A11FA0FBF766FC206808B9CF
:104A8000012000E0002028B940F241120FA119A036
:104A9000FBF75AFC0C4960680968084098B1206827
:104AA00088B90949606809688843606000F0CEFAF7
:104AB0001449606809680844124908602046FFF7F5
:104AC00055F801F08FF970BDF40000202E2E5C46E1
:104AD00072656552544F535C706F727461626C659D
:104AE0005C4D656D4D616E675C686561705F342E0D
:104AF000630000004572726F723A25732C25640DB5
:104B00000A000000EC000020064800684FF47A71AB
:104B1000B0FBF1F0401E4FF0E02148610720086132
:104B2000704700002000002070B5FBF7E7FB05464A
:104B3000102D11D305F1E02090F8F04310480078D3
:104B4000844201DB012000E0002028B94FF44072CC
:104B50000CA117A0FBF7F8FB1948006800F4E0600F
:104B600018490968884201D8012000E0002028B9CE
:104B70004FF4447203A10EA0FBF7E6FB70BD0000EA
:104B8000D80000202E2E5C4672656552544F535C4F
:104B9000706F727461626C655C525644535C415232
:104BA0004D5F434D34465C706F72742E630000009D
:104BB0004572726F723A25732C25640D0A0000004D
:104BC0000CED00E0DC000020024600200BE0084B6A
:104BD00053F8303033B9064B43F8301003EBC003C1
:104BE0005A6002E0401C0828F1D300BF7047000063
:104BF000B00B00202DE9F04105460E4617462C4625
:104C0000FFF7AAFE94F94400401C10B9002084F874
:104C1000440094F94500401C10B9002084F8450078
:104C2000FFF7DEFEA06B28B93A46314604F12400B6
:104C300000F0F6F82046FFF74CFABDE8F0810000DE
:104C400070B504460025ACB10F48006808B90120D2
:104C500000E0002028B940F2CF420CA110A0FBF7E1
:104C600073FB00F0F3F900212046FEF7C7FC01F0CA
:104C7000B9F805463DB94FF080500D490860BFF3C3
:104C80004F8FBFF36F8F70BDBC0000202E2E5C468F
:104C900072656552544F535C7461736B732E63007D
:104CA0004572726F723A25732C25640D0A0000005C
:104CB00004ED00E070B50546FFF74EFE15B92D482E
:104CC000006800E028460446201DFFF7E3FD78B9A0
:104CD000E06A00EB8000284951F8200040B994F8C0
:104CE0002C10012088402549096881432348016030
:104CF000A06A18B104F11800FFF7CCFD2048006845
:104D0000401C1F4908601B480068844209D1211DCE
:104D10001C48FFF715FE1C480068401C1A49086033
:104D200009E01A480068401E184908602046FEF74E
:104D3000CDFDFFF7F9F8FFF753FE15480068C0B145
:104D40000C480068844214D11248006808B9012058
:104D500000E0002028B940F265420FA113A0FBF744
:104D6000F3FA4FF0805015490860BFF34F8FBFF33F
:104D70006F8F70BD84000020F00B00209C0000208D
:104D8000B0000020AC0E0020900000209400002015
:104D9000A0000020BC0000202E2E5C4672656552EB
:104DA000544F535C7461736B732E63004572726F62
:104DB000723A25732C25640D0A00000004ED00E012
:104DC0000120014908607047A800002070B5044622
:104DD0000D462CB940F6063207A10CA0FBF7B4FA39
:104DE0000E48016818312046FFF790FD0121284642
:104DF000FEF704FC70BD00002E2E5C467265655205
:104E0000544F535C7461736B732E63004572726F01
:104E1000723A25732C25640D0A00000084000020DE
:104E200070B505460E4614462DB940F6313209A13B
:104E30000DA0FBF789FA1048016818312846FFF7E2
:104E40007FFD0CB14FF0FF3621463046FEF7D6FB12
:104E500070BD00002E2E5C4672656552544F535C47
:104E60007461736B732E63004572726F723A2573AF
:104E70002C25640D0A0000008400002070B5054652
:104E80002C46002D4BD02649E06A0968C96A884241
:104E900045D2A06900F0004028B921480068C06AE6
:104EA000C0F12000A061E16A01EB81011D4A02EB23
:104EB00081016069884201D1012000E0002050B3E7
:104EC000201DFFF7E7FC78B9E06A00EB8000154988
:104ED00051F8200040B994F82C1001208840124964
:104EE00009688143104801600D480068C06AE062AB
:104EF00094F82C10012088400B49096808430A499E
:104F00000860E16A01EB8101064A02EB8100211D84
:104F1000FFF716FD03E002480068C06AE06270BD5A
:104F200084000020F00B00209C00002010B50446F7
:104F30002CB940F6C13205A109A0FBF705FA0C48CF
:104F4000006820600B480068606010BD2E2E5C4633
:104F500072656552544F535C7461736B732E6300BA
:104F60004572726F723A25732C25640D0A00000099
:104F7000AC0000209800002010B586B000200590FD
:104F8000049003AA04A905A8FFF798FC0022DDE914
:104F900004101346CDE9002102901CA11D48039A7C
:104FA00000F044FD1C4908600846006808B101246F
:104FB00000E00024012C02D100F0A4FF0446012CE3
:104FC00015D100BF502080F31188BFF34F8FBFF37E
:104FD0006F8F00BF4FF0FF3010490860012010496B
:104FE000086000200F49086000F08CF80BE0601C9E
:104FF00008B1012000E0002028B940F284720AA123
:105000000EA0FBF7A1F906B010BD000049444C45C5
:1050100000000000DD390008B8000020B4000020C6
:10502000A0000020980000202E2E5C46726565527C
:10503000544F535C7461736B732E63004572726FCF
:10504000723A25732C25640D0A000000024800689E
:10505000401C014908607047BC00002010B51B4887
:10506000006818B101201A4908602DE00020184995
:10507000086018480068B0FA80F0C0F11F0404EB23
:105080008400154951F8200008B1012000E00020FB
:1050900028B940F6F62211A115A0FBF755F904EB4B
:1050A00084010D4A02EB810041684968416000F1CA
:1050B000080142688A4202D14168496841604168FA
:1050C000C9680F4A116000BF10BD0000BC0000207D
:1050D000A80000209C000020F00B00202E2E5C4633
:1050E00072656552544F535C7461736B732E630029
:1050F0004572726F723A25732C25640D0A00000008
:10510000840000201CB5404800684049884201D016
:10511000012000E0002028B940F259123CA147A02C
:10512000FBF712F9384800683849491E884201D017
:10513000012000E0002028B94FF4AD7234A13FA057
:10514000FBF702F9414C204600780190FF202146F0
:1051500008700846007800909DF8000000F0F0000C
:105160009DF80010884201D1012000E0002028B9FC
:1051700040F2731226A131A0FBF7E6F89DF800007B
:1051800000F050003249087007203249086009E0F9
:1051900030480068401E2F4908609DF80000400616
:1051A000000E00909DF8000000F080008028EFD0F5
:1051B000284800680002274908600846008800F473
:1051C000E06008602149019808700F4820300068AD
:1051D00040F470000C49203108600846006840F037
:1051E00070400860FFF790FC00201B490860FBF747
:1051F0004DF81A48006840F0404018490860FBF735
:1052000035F800201CBD000000ED00E071C20F4128
:105210002E2E5C4672656552544F535C706F7274EB
:1052200061626C655C525644535C41524D5F434D24
:1052300034465C706F72742E630000004572726FAA
:10524000723A25732C25640D0A00000000E400E08A
:10525000D8000020DC000020D400002034EF00E063
:1052600010B500BF502080F31188BFF34F8FBFF3FC
:105270006F8F00BF00F040FC18B14FF08050044920
:10528000086000BF002080F3118800BF10BD00003F
:1052900004ED00E02DE9F84305460E4690460DB1B9
:1052A000012000E0002028B94FF4C4720EA113A021
:1052B000FBF74AF80EB9002701E005FB06F707F1F6
:1052C0005400FEF74FFF04465CB104F1540900207E
:1052D00084F8460043464A46314628460094FEF785
:1052E00091FB2046BDE8F8832E2E5C467265655220
:1052F000544F535C71756575652E63004572726F0E
:10530000723A25732C25640D0A0000002DE9F8433C
:1053100080460E4617461D46DDF82090B8F1000F76
:1053200001D0012000E0002028B94FF4A97222A189
:1053300026A0FBF709F80DB1012000E0002028B9F4
:105340004FF4AB721CA121A0FAF7FEFF07B10EB11A
:10535000012000E0002028B94FF4AD7216A11BA077
:10536000FAF7F2FF07B90EB9012000E0002028B9D2
:1053700040F25B1210A115A0FAF7E6FF542000904E
:105380000098542801D1012000E0002028B940F203
:10539000631209A10DA0FAF7D7FF2C464CB10120EA
:1053A00084F846004B463A46314640460094FEF7A4
:1053B00029FB2046BDE8F8832E2E5C4672656552B7
:1053C000544F535C71756575652E63004572726F3D
:1053D000723A25732C25640D0A0000002DE9FF4761
:1053E00082B005460E461F464FF0000A2C462CB9E7
:1053F00040F2DC4261A166A0FAF7A6FF0EB9206C6C
:1054000008B9012000E0002028B940F2DD425BA18C
:105410005FA0FAF799FF00F059FB08B9049808B9A2
:10542000012000E0002028B94FF49C6253A158A04D
:10543000FAF78AFF00BFFFF78FFAD4F83890B9F176
:10544000000F3DD0D4F80C8031462046FEF7EAF933
:10545000DFB9A9F10100A063206810B9FEF72CFFA5
:105460006060206908B9012000E0002010BB04F151
:10547000100000F05DFCE8B14FF080504849086032
:10548000BFF34F8FBFF36F8F14E0C4F80C80606AD6
:1054900008B9012000E0002060B904F1240000F008
:1054A00047FC38B14FF080503D490860BFF34F8F43
:1054B000BFF36F8FFFF794FA012006B0BDE8F087C5
:1054C000049818B9FFF78CFA0020F6E7BAF1000F3C
:1054D00004D16846FFF72AFD4FF0010AFFF780FA72
:1054E000FFF7B4FDFFF738FA94F94400401C10B9F7
:1054F000002084F8440094F94500401C10B90020B5
:1055000084F84500FFF76CFA04A9684600F00CFA2D
:1055100040BB2046FEF78AFBF0B1206830B9FFF7A8
:105520001BFA6068FFF7AAFCFFF75AFA04F124009F
:105530000499FFF74BFC2046FEF7CBFD00F052FC30
:1055400000287FF478AF4FF0805015490860BFF312
:105550004F8FBFF36F8F6EE72046FEF7BAFD00F066
:1055600041FC68E72046FEF7B4FD00F03BFC204616
:10557000FEF75CFB0028EED000209EE72E2E5C4656
:1055800072656552544F535C71756575652E630085
:105590004572726F723A25732C25640D0A00000063
:1055A00004ED00E070B505460E462C462CB940F2DD
:1055B0001B121EA122A0FAF7C7FEFFF7CDF9D4E90E
:1055C0000F12206801FB020060600020A0632068C9
:1055D000A060E06B401E226C216800FB0210E060BE
:1055E000FF2084F8440084F845009EB9206908B97A
:1055F000012000E00020A8B904F1100000F098FBA1
:1056000080B14FF0805012490860BFF34F8FBFF355
:105610006F8F07E004F11000FFF768F904F1240030
:10562000FFF764F9FFF7DCF9012070BD2E2E5C4610
:1056300072656552544F535C71756575652E6300D4
:105640004572726F723A25732C25640D0A000000B2
:1056500004ED00E02DE9FF4383B0064688461D4671
:105660004FF0000934462CB940F2D92260A165A060
:10567000FAF76AFEB8F1000F01D1206C08B90120D9
:1056800000E0002028B940F2DA2259A15DA0FAF723
:105690005BFE022D02D1E06B012801D1012000E068
:1056A000002028B940F2DB2251A156A0FAF74CFEA7
:1056B00000F00CFA08B9059808B9012000E00020B4
:1056C00028B940F2DE224AA14EA0FAF73DFE00BF03
:1056D000FFF742F9A06BE16B884201D3022D38D16C
:1056E0002A4641462046FEF7B2F80746A06C68B14C
:1056F00029462046FEF7B6FA28B34FF080504549B8
:105700000860BFF34F8FBFF36F8F1CE0606A08B96A
:10571000012000E0002068B904F1240000F008FB3B
:1057200088B14FF080503B490860BFF34F8FBFF303
:105730006F8F08E03FB14FF0805036490860BFF3EB
:105740004F8FBFF36F8FFFF74BF9012007B0BDE814
:10575000F083059818B9FFF743F90020F6E7B9F18F
:10576000000F04D101A8FFF7E1FB4FF00109FFF79B
:1057700037F9FFF76BFCFFF7EFF894F94400401C92
:1057800010B9002084F8440094F94500401C10B979
:10579000002084F84500FFF723F905A901A800F0CF
:1057A000C3F8F0B92046FEF74EFAA0B104F110009C
:1057B0000599FFF70BFB2046FEF78BFC00F012FB70
:1057C000002885D14FF0805012490860BFF34F8FF9
:1057D000BFF36F8F7CE72046FEF77BFC00F002FBF7
:1057E00076E72046FEF775FC00F0FCFA0020ADE7F6
:1057F0002E2E5C4672656552544F535C717565750B
:10580000652E63004572726F723A25732C25640D04
:105810000A00000004ED00E02DE9F05F80468A46B2
:1058200015461E4644462CB940F29F3235A13AA097
:10583000FAF78AFDBAF1000F01D1206C08B90120F6
:1058400000E0002028B94FF468722EA132A0FAF7C8
:105850007BFD022E02D1E06B012801D1012000E086
:10586000002028B940F2A13226A12BA0FAF76CFD46
:10587000FFF75AF900BF5021EFF3118081F311882F
:10588000BFF34F8FBFF36F8F00BF0746A06BE16B75
:10589000884201D3022E2BD194F945B032465146AD
:1058A0002046FDF7D4FF0BF10100C8B9A06C40B150
:1058B00031462046FEF7D6F9B8B1B5B101202860CF
:1058C00013E0606A08B9012000E0002068B904F123
:1058D000240000F02DFA40B13DB10120286004E021
:1058E0000BF1010040B284F845004FF0010901E0DE
:1058F0004FF0000900BF87F3118800BF4846BDE89C
:10590000F09F00002E2E5C4672656552544F535C2A
:1059100071756575652E63004572726F723A2573F5
:105920002C25640D0A0000002DE9F04104460D46C7
:105930002CB940F6CB3219A11DA0FAF705FD2DB9FF
:1059400040F6CC3215A11AA0FAF7FEFCFFF704F8D6
:105950001B4807682868401C08B9002619E0194947
:1059600020680968884204D06068B84201D80126DE
:105970000FE06068381A2968884209D2286861688F
:10598000791A401A28602046FFF7D0FA002600E076
:105990000126FFF725F83046BDE8F0812E2E5C4643
:1059A00072656552544F535C7461736B732E630060
:1059B0004572726F723A25732C25640D0A0000003F
:1059C00098000020AC0000202DE9FF4F85B08046F4
:1059D00089461746DDE912ABB800FEF7C3FB064661
:1059E00056B15C20FEF7BEFB04460CB1266304E012
:1059F0003046FFF72DF800E000248CB1002084F839
:105A00005900CDE900ABCDE902403A46494640464F
:105A1000089BFEF70FF82046FDF73CFE012501E04C
:105A20004FF0FF35284609B0BDE8F08F2DE9F04F63
:105A300085B00746884691469A46DDE90EB6109C29
:105A40000EB1012000E0002028B940F2552216A135
:105A50001AA0FAF779FC0CB1012000E0002028B967
:105A600040F2562210A115A0FAF76EFCACB1A6B117
:105A700025462E63022085F85900002004A95346CC
:105A80004A46CDE900B1CDE9025041463846FDF71E
:105A9000D1FF2846FDF7FEFD01E0002004900498A8
:105AA00005B0BDE8F08F00002E2E5C467265655291
:105AB000544F535C7461736B732E63004572726F45
:105AC000723A25732C25640D0A0000000549096807
:105AD00009B9012005E00449096809B9022000E07C
